{
  "contractName": "Pokemons",
  "abi": [
    {
      "anonymous": false,
      "inputs": [
        {
          "indexed": true,
          "name": "by",
          "type": "address"
        },
        {
          "indexed": true,
          "name": "pokemon",
          "type": "uint8"
        }
      ],
      "name": "LogPokemonCaught",
      "type": "event",
      "signature": "0x38f3d86cab42835e18b9ff5ed00cd76b722b92c435ad0d9aa170939ac7d499f5"
    },
    {
      "constant": false,
      "inputs": [
        {
          "name": "pokemon",
          "type": "uint8"
        }
      ],
      "name": "catchPokemon",
      "outputs": [],
      "payable": false,
      "stateMutability": "nonpayable",
      "type": "function",
      "signature": "0xfd3c783a"
    },
    {
      "constant": true,
      "inputs": [
        {
          "name": "person",
          "type": "address"
        }
      ],
      "name": "getPokemonsByPerson",
      "outputs": [
        {
          "name": "",
          "type": "uint8[]"
        }
      ],
      "payable": false,
      "stateMutability": "view",
      "type": "function",
      "signature": "0x1bf13252"
    },
    {
      "constant": true,
      "inputs": [
        {
          "name": "pokemon",
          "type": "uint8"
        }
      ],
      "name": "getPokemonHolders",
      "outputs": [
        {
          "name": "",
          "type": "address[]"
        }
      ],
      "payable": false,
      "stateMutability": "view",
      "type": "function",
      "signature": "0x8675640b"
    }
  ],
  "bytecode": "0x608060405234801561001057600080fd5b50610710806100206000396000f3fe608060405260043610610057576000357c0100000000000000000000000000000000000000000000000000000000900463ffffffff1680631bf132521461005c5780638675640b14610102578063fd3c783a14610195575b600080fd5b34801561006857600080fd5b506100ab6004803603602081101561007f57600080fd5b81019080803573ffffffffffffffffffffffffffffffffffffffff1690602001909291905050506101d3565b6040518080602001828103825283818151815260200191508051906020019060200280838360005b838110156100ee5780820151818401526020810190506100d3565b505050509050019250505060405180910390f35b34801561010e57600080fd5b5061013e6004803603602081101561012557600080fd5b81019080803560ff16906020019092919050505061029a565b6040518080602001828103825283818151815260200191508051906020019060200280838360005b83811015610181578082015181840152602081019050610166565b505050509050019250505060405180910390f35b3480156101a157600080fd5b506101d1600480360360208110156101b857600080fd5b81019080803560ff169060200190929190505050610346565b005b60606000808373ffffffffffffffffffffffffffffffffffffffff1673ffffffffffffffffffffffffffffffffffffffff16815260200190815260200160002060000180548060200260200160405190810160405280929190818152602001828054801561028e57602002820191906000526020600020906000905b82829054906101000a900460ff16601f81111561026857fe5b8152602001906001019060208260000104928301926001038202915080841161024f5790505b50505050509050919050565b60606001600083601f8111156102ac57fe5b815260200190815260200160002080548060200260200160405190810160405280929190818152602001828054801561033a57602002820191906000526020600020905b8160009054906101000a900473ffffffffffffffffffffffffffffffffffffffff1673ffffffffffffffffffffffffffffffffffffffff16815260200190600101908083116102f0575b50505050509050919050565b3381600f6000808473ffffffffffffffffffffffffffffffffffffffff1673ffffffffffffffffffffffffffffffffffffffff16815260200190815260200160002060010154014211151561039a57600080fd5b6103a48282610620565b1515156103b057600080fd5b6000803373ffffffffffffffffffffffffffffffffffffffff1673ffffffffffffffffffffffffffffffffffffffff16815260200190815260200160002060000183908060018154018082558091505090600182039060005260206000209060209182820401919006909192909190916101000a81548160ff0219169083601f81111561043957fe5b021790555050426000803373ffffffffffffffffffffffffffffffffffffffff1673ffffffffffffffffffffffffffffffffffffffff168152602001908152602001600020600101819055506001600084601f81111561049557fe5b81526020019081526020016000203390806001815401808255809150509060018203906000526020600020016000909192909190916101000a81548173ffffffffffffffffffffffffffffffffffffffff021916908373ffffffffffffffffffffffffffffffffffffffff160217905550506001600260003386604051602001808373ffffffffffffffffffffffffffffffffffffffff1673ffffffffffffffffffffffffffffffffffffffff166c0100000000000000000000000002815260140182601f81111561056357fe5b60ff167f01000000000000000000000000000000000000000000000000000000000000000281526001019250505060405160208183030381529060405280519060200120815260200190815260200160002060006101000a81548160ff02191690831515021790555082601f8111156105d857fe5b3373ffffffffffffffffffffffffffffffffffffffff167f38f3d86cab42835e18b9ff5ed00cd76b722b92c435ad0d9aa170939ac7d499f560405160405180910390a3505050565b6000600260008484604051602001808373ffffffffffffffffffffffffffffffffffffffff1673ffffffffffffffffffffffffffffffffffffffff166c0100000000000000000000000002815260140182601f81111561067c57fe5b60ff167f01000000000000000000000000000000000000000000000000000000000000000281526001019250505060405160208183030381529060405280519060200120815260200190815260200160002060009054906101000a900460ff1690509291505056fea165627a7a72305820fa478c3f041e3b6bef06fe696314cd6ffbb9ff712d3b4fd9142bcf07a7c33a3f0029",
  "source": "pragma solidity >=0.4.21 <0.6.0;\r\n\r\ncontract Pokemons {\r\n\r\n    //a few defined pokemons\r\n    enum Pokemon { Bulbasaur, Ivysaur, Venusaur, Charmander, Charmeleon, Charizard, Squirtle, Wartortle,\r\n    Blastoise, Caterpie, Metapod, Butterfree, Weedle, Kakuna, Beedrill, Pidgey, Pidgeotto, Pidgeot, Rattata, Raticate,\r\n    Spearow, Fearow, Ekans, Arbok, Pikachu, Raichu, Sandshrew, Sandslash, NidoranF, Nidorina, Nidoqueen, NidoranM }\r\n    \r\n    //pokemon catch event. Note the \"Log\" prefix, which is a standart for event names.\r\n    event LogPokemonCaught(address indexed by, Pokemon indexed pokemon);\r\n    \r\n    struct Player {\r\n        Pokemon[] pokemons;\r\n        uint lastCatch; //timestamp\r\n    }\r\n    \r\n    // link user address with a player\r\n    mapping(address => Player) players;\r\n    \r\n    //mapping can't take user-defined types as keys (ex. Pokemon)\r\n    //the key is uint256, because the amount of Pokemons may increase in the future\r\n    //and pass the uint8 range\r\n    mapping(uint => address[]) pokemonHolders;\r\n    \r\n    //the hash of the pokemon holder and the pokemon is the key. This allows constant time lookup of whether a pokemon is caught by a person\r\n    mapping(bytes32 => bool) hasPokemonMap;\r\n\r\n    // mapping(address => mapping(uint => bool)) hasPokemon;\r\n\r\n    //a pokemon can be caught at most once every 15 seconds if not caught already\r\n    modifier canPersonCatch(address person, Pokemon pokemon){\r\n        require(now > players[person].lastCatch + 15 seconds);\r\n        require(!hasPokemon(person, pokemon));\r\n        _;\r\n    }\r\n\r\n    //returns if that person has caught a pokemon. It uses the hash of the address and the pokemon so that it can return the answer\r\n    //without loops\r\n    function hasPokemon(address person, Pokemon pokemon) internal view returns (bool) {\r\n        return hasPokemonMap[keccak256(abi.encodePacked(person, pokemon))];\r\n    }\r\n    \r\n    function catchPokemon(Pokemon pokemon) public canPersonCatch(msg.sender, pokemon) {\r\n        \r\n        players[msg.sender].pokemons.push(pokemon);\r\n\r\n        players[msg.sender].lastCatch = now;\r\n        \r\n        pokemonHolders[uint(pokemon)].push(msg.sender);\r\n        \r\n        hasPokemonMap[keccak256(abi.encodePacked(msg.sender, pokemon))] = true;\r\n        \r\n        emit LogPokemonCaught(msg.sender, pokemon);\r\n    }\r\n    \r\n    function getPokemonsByPerson(address person) public view returns (Pokemon[] memory) {\r\n        return players[person].pokemons;\r\n    }\r\n    \r\n    function getPokemonHolders(Pokemon pokemon) public view returns (address[] memory) {\r\n        return pokemonHolders[uint(pokemon)];\r\n    }\r\n}",
  "sourcePath": "D:/Workspace/SoftUniCourse/SmartContracts-2019/Jan-2019/08. Working-with-Contracts-from-Applications-Web3-Part-2/pokemon_tests/contracts/Pokemons.sol",
  "compiler": {
    "name": "solc",
    "version": "0.5.0+commit.1d4f565a.Emscripten.clang"
  },
  "schemaVersion": "3.0.3",
  "updatedAt": "2019-03-20T09:53:58.107Z",
  "devdoc": {
    "methods": {}
  },
  "userdoc": {
    "methods": {}
  }
}