{
  "contractName": "SupplyChain",
  "abi": [
    {
      "inputs": [],
      "payable": false,
      "stateMutability": "nonpayable",
      "type": "constructor",
      "signature": "constructor"
    },
    {
      "constant": false,
      "inputs": [
        {
          "name": "_name",
          "type": "string"
        },
        {
          "name": "_price",
          "type": "uint256"
        }
      ],
      "name": "addItem",
      "outputs": [
        {
          "name": "",
          "type": "bool"
        }
      ],
      "payable": false,
      "stateMutability": "nonpayable",
      "type": "function",
      "signature": "0x62d6bbdf"
    }
  ],
  "bytecode": "0x608060405234801561001057600080fd5b506000600181905550336000806101000a81548173ffffffffffffffffffffffffffffffffffffffff021916908373ffffffffffffffffffffffffffffffffffffffff160217905550610381806100686000396000f3fe608060405260043610610041576000357c0100000000000000000000000000000000000000000000000000000000900463ffffffff16806362d6bbdf14610046575b600080fd5b34801561005257600080fd5b506101166004803603604081101561006957600080fd5b810190808035906020019064010000000081111561008657600080fd5b82018360208201111561009857600080fd5b803590602001918460018302840111640100000000831117156100ba57600080fd5b91908080601f016020809104026020016040519081016040528093929190818152602001838380828437600081840152601f19601f82011690508083019250505050505050919291929080359060200190929190505050610130565b604051808215151515815260200191505060405180910390f35b600060c06040519081016040528084815260200160015481526020018381526020016000600381111561015f57fe5b81526020013373ffffffffffffffffffffffffffffffffffffffff168152602001600073ffffffffffffffffffffffffffffffffffffffff1681525060026000600154815260200190815260200160002060008201518160000190805190602001906101cc9291906102b0565b50602082015181600101556040820151816002015560608201518160030160006101000a81548160ff0219169083600381111561020557fe5b021790555060808201518160030160016101000a81548173ffffffffffffffffffffffffffffffffffffffff021916908373ffffffffffffffffffffffffffffffffffffffff16021790555060a08201518160040160006101000a81548173ffffffffffffffffffffffffffffffffffffffff021916908373ffffffffffffffffffffffffffffffffffffffff16021790555090505060018054016001819055506001905092915050565b828054600181600116156101000203166002900490600052602060002090601f016020900481019282601f106102f157805160ff191683800117855561031f565b8280016001018555821561031f579182015b8281111561031e578251825591602001919060010190610303565b5b50905061032c9190610330565b5090565b61035291905b8082111561034e576000816000905550600101610336565b5090565b9056fea165627a7a72305820082bdde54642df6e911c0250b98414fdc91edd9bed50456c1683e0c764a135a80029",
  "source": "pragma solidity ^0.5.0;\r\n\r\ncontract SupplyChain {\r\n\r\n  /* set owner */\r\n  address private owner;\r\n\r\n  /* Add a variable called skuCount to track the most recent sku # */\r\n  uint private skuCount;\r\n\r\n  /* Add a line that creates a public mapping that maps the SKU (a number) to an Item.\r\n     Call this mappings items\r\n  */\r\n  mapping ( uint => Item) private items;\r\n\r\n  /* Add a line that creates an enum called State. This should have 4 states\r\n    ForSale\r\n    Sold\r\n    Shipped\r\n    Received\r\n    (declaring them in this order is important for testing)\r\n  */\r\n  enum State {\r\n    ForSale,\r\n    Sold,\r\n    Shipped,\r\n    Received\r\n  }\r\n\r\n  /* Create a struct named Item.\r\n    Here, add a name, sku, price, state, seller, and buyer\r\n    We've left you to figure out what the appropriate types are,\r\n    if you need help you can ask around :)\r\n  */\r\n  struct Item {\r\n    string name;\r\n    uint sku;\r\n    uint price;\r\n    State state;\r\n    address seller;\r\n    address buyer;\r\n  }\r\n\r\n  \r\n  constructor() public {\r\n    /* Here, set the owner as the person who instantiated the contract\r\n       and set your skuCount to 0. */\r\n    skuCount = 0;\r\n    owner = msg.sender;\r\n  }\r\n\r\n\r\n  function addItem(string memory _name, uint _price) public returns(bool){\r\n    items[skuCount] = Item({name: _name, sku: skuCount, price: _price, state: State.ForSale, seller: msg.sender, buyer: address(0)});\r\n    skuCount = skuCount + 1;\r\n    return true;\r\n  }\r\n\r\n}\r\n",
  "sourcePath": "D:/08.SoftUni-SmartContractDevelopmentOpenCourse/07. Working With Contracts From Applications - WEB3/Homework/contracts/SupplyChain.sol",
  "compiler": {
    "name": "solc",
    "version": "0.5.0+commit.1d4f565a.Emscripten.clang"
  },
  "schemaVersion": "3.0.3",
  "updatedAt": "2019-03-19T20:14:42.953Z",
  "devdoc": {
    "methods": {}
  },
  "userdoc": {
    "methods": {}
  }
}